{
  "contractName": "finals",
  "abi": [
    {
      "inputs": [],
      "stateMutability": "nonpayable",
      "type": "constructor"
    },
    {
      "anonymous": false,
      "inputs": [
        {
          "indexed": false,
          "internalType": "string",
          "name": "description",
          "type": "string"
        },
        {
          "indexed": false,
          "internalType": "uint256",
          "name": "productId",
          "type": "uint256"
        },
        {
          "indexed": false,
          "internalType": "address",
          "name": "manufacturer",
          "type": "address"
        }
      ],
      "name": "ProductCreated",
      "type": "event"
    },
    {
      "inputs": [
        {
          "internalType": "uint256",
          "name": "",
          "type": "uint256"
        }
      ],
      "name": "descD",
      "outputs": [
        {
          "internalType": "uint256",
          "name": "pid",
          "type": "uint256"
        },
        {
          "internalType": "string",
          "name": "DTMD",
          "type": "string"
        },
        {
          "internalType": "string",
          "name": "QMRD",
          "type": "string"
        },
        {
          "internalType": "string",
          "name": "DTPMD",
          "type": "string"
        },
        {
          "internalType": "string",
          "name": "TMDD",
          "type": "string"
        },
        {
          "internalType": "string",
          "name": "VHD",
          "type": "string"
        }
      ],
      "stateMutability": "view",
      "type": "function",
      "constant": true
    },
    {
      "inputs": [
        {
          "internalType": "uint256",
          "name": "",
          "type": "uint256"
        }
      ],
      "name": "descM",
      "outputs": [
        {
          "internalType": "uint256",
          "name": "pid",
          "type": "uint256"
        },
        {
          "internalType": "string",
          "name": "CATRM",
          "type": "string"
        },
        {
          "internalType": "string",
          "name": "DPMM",
          "type": "string"
        },
        {
          "internalType": "string",
          "name": "DTQTMM",
          "type": "string"
        },
        {
          "internalType": "string",
          "name": "DTPM",
          "type": "string"
        },
        {
          "internalType": "string",
          "name": "DEM",
          "type": "string"
        },
        {
          "internalType": "string",
          "name": "DTPMM",
          "type": "string"
        },
        {
          "internalType": "string",
          "name": "TMTMM",
          "type": "string"
        },
        {
          "internalType": "string",
          "name": "VHM",
          "type": "string"
        },
        {
          "internalType": "string",
          "name": "ISOM",
          "type": "string"
        },
        {
          "internalType": "string",
          "name": "FSSAIM",
          "type": "string"
        }
      ],
      "stateMutability": "view",
      "type": "function",
      "constant": true
    },
    {
      "inputs": [
        {
          "internalType": "uint256",
          "name": "",
          "type": "uint256"
        }
      ],
      "name": "descS",
      "outputs": [
        {
          "internalType": "uint256",
          "name": "pid",
          "type": "uint256"
        },
        {
          "internalType": "string",
          "name": "DTRMS",
          "type": "string"
        },
        {
          "internalType": "string",
          "name": "TMTRS",
          "type": "string"
        },
        {
          "internalType": "string",
          "name": "TMTSS",
          "type": "string"
        }
      ],
      "stateMutability": "view",
      "type": "function",
      "constant": true
    },
    {
      "inputs": [],
      "name": "distributor",
      "outputs": [
        {
          "internalType": "address",
          "name": "",
          "type": "address"
        }
      ],
      "stateMutability": "view",
      "type": "function",
      "constant": true
    },
    {
      "inputs": [],
      "name": "manufacturer",
      "outputs": [
        {
          "internalType": "address",
          "name": "",
          "type": "address"
        }
      ],
      "stateMutability": "view",
      "type": "function",
      "constant": true
    },
    {
      "inputs": [
        {
          "internalType": "uint256",
          "name": "",
          "type": "uint256"
        }
      ],
      "name": "products",
      "outputs": [
        {
          "internalType": "uint256",
          "name": "productId",
          "type": "uint256"
        },
        {
          "internalType": "string",
          "name": "Location",
          "type": "string"
        },
        {
          "internalType": "address",
          "name": "owner",
          "type": "address"
        }
      ],
      "stateMutability": "view",
      "type": "function",
      "constant": true
    },
    {
      "inputs": [],
      "name": "retailer",
      "outputs": [
        {
          "internalType": "address",
          "name": "",
          "type": "address"
        }
      ],
      "stateMutability": "view",
      "type": "function",
      "constant": true
    },
    {
      "inputs": [
        {
          "internalType": "address",
          "name": "_distributor",
          "type": "address"
        }
      ],
      "name": "setDistributor",
      "outputs": [],
      "stateMutability": "nonpayable",
      "type": "function"
    },
    {
      "inputs": [
        {
          "internalType": "address",
          "name": "_retailer",
          "type": "address"
        }
      ],
      "name": "setRetailer",
      "outputs": [],
      "stateMutability": "nonpayable",
      "type": "function"
    },
    {
      "inputs": [
        {
          "internalType": "string",
          "name": "_CATRM",
          "type": "string"
        },
        {
          "internalType": "string",
          "name": "_DPMM",
          "type": "string"
        },
        {
          "internalType": "string",
          "name": "_DTQTMM",
          "type": "string"
        },
        {
          "internalType": "string",
          "name": "_DTPM",
          "type": "string"
        },
        {
          "internalType": "string",
          "name": "_DEM",
          "type": "string"
        },
        {
          "internalType": "string",
          "name": "_DTPMM",
          "type": "string"
        },
        {
          "internalType": "string",
          "name": "_TMTMM",
          "type": "string"
        },
        {
          "internalType": "string",
          "name": "_VHM",
          "type": "string"
        },
        {
          "internalType": "string",
          "name": "_ISOM",
          "type": "string"
        },
        {
          "internalType": "string",
          "name": "_FSSAIM",
          "type": "string"
        },
        {
          "internalType": "uint256",
          "name": "_productId",
          "type": "uint256"
        }
      ],
      "name": "updateManufacturerVariables",
      "outputs": [],
      "stateMutability": "nonpayable",
      "type": "function"
    },
    {
      "inputs": [
        {
          "internalType": "uint256",
          "name": "_pid",
          "type": "uint256"
        },
        {
          "internalType": "string",
          "name": "_DTMD",
          "type": "string"
        },
        {
          "internalType": "string",
          "name": "_QMRD",
          "type": "string"
        },
        {
          "internalType": "string",
          "name": "_DTPMD",
          "type": "string"
        },
        {
          "internalType": "string",
          "name": "_TMDD",
          "type": "string"
        },
        {
          "internalType": "string",
          "name": "_VHD",
          "type": "string"
        }
      ],
      "name": "updateDistributorVariables",
      "outputs": [
        {
          "internalType": "string",
          "name": "",
          "type": "string"
        }
      ],
      "stateMutability": "nonpayable",
      "type": "function"
    },
    {
      "inputs": [
        {
          "internalType": "uint256",
          "name": "_pid",
          "type": "uint256"
        },
        {
          "internalType": "string",
          "name": "_DTRMS",
          "type": "string"
        },
        {
          "internalType": "string",
          "name": "_TMTRS",
          "type": "string"
        },
        {
          "internalType": "string",
          "name": "_TMTSS",
          "type": "string"
        }
      ],
      "name": "updateRetailerVariables",
      "outputs": [
        {
          "internalType": "string",
          "name": "",
          "type": "string"
        }
      ],
      "stateMutability": "nonpayable",
      "type": "function"
    },
    {
      "inputs": [
        {
          "internalType": "uint256",
          "name": "_pid",
          "type": "uint256"
        }
      ],
      "name": "getprodmandet",
      "outputs": [
        {
          "components": [
            {
              "internalType": "uint256",
              "name": "pid",
              "type": "uint256"
            },
            {
              "internalType": "string",
              "name": "CATRM",
              "type": "string"
            },
            {
              "internalType": "string",
              "name": "DPMM",
              "type": "string"
            },
            {
              "internalType": "string",
              "name": "DTQTMM",
              "type": "string"
            },
            {
              "internalType": "string",
              "name": "DTPM",
              "type": "string"
            },
            {
              "internalType": "string",
              "name": "DEM",
              "type": "string"
            },
            {
              "internalType": "string",
              "name": "DTPMM",
              "type": "string"
            },
            {
              "internalType": "string",
              "name": "TMTMM",
              "type": "string"
            },
            {
              "internalType": "string",
              "name": "VHM",
              "type": "string"
            },
            {
              "internalType": "string",
              "name": "ISOM",
              "type": "string"
            },
            {
              "internalType": "string",
              "name": "FSSAIM",
              "type": "string"
            }
          ],
          "internalType": "struct finals.DescM",
          "name": "",
          "type": "tuple"
        }
      ],
      "stateMutability": "view",
      "type": "function",
      "constant": true
    },
    {
      "inputs": [
        {
          "internalType": "uint256",
          "name": "_pid",
          "type": "uint256"
        }
      ],
      "name": "getproddistdet",
      "outputs": [
        {
          "components": [
            {
              "internalType": "uint256",
              "name": "pid",
              "type": "uint256"
            },
            {
              "internalType": "string",
              "name": "DTMD",
              "type": "string"
            },
            {
              "internalType": "string",
              "name": "QMRD",
              "type": "string"
            },
            {
              "internalType": "string",
              "name": "DTPMD",
              "type": "string"
            },
            {
              "internalType": "string",
              "name": "TMDD",
              "type": "string"
            },
            {
              "internalType": "string",
              "name": "VHD",
              "type": "string"
            }
          ],
          "internalType": "struct finals.DescD",
          "name": "",
          "type": "tuple"
        }
      ],
      "stateMutability": "view",
      "type": "function",
      "constant": true
    },
    {
      "inputs": [
        {
          "internalType": "uint256",
          "name": "_pid",
          "type": "uint256"
        }
      ],
      "name": "getprodseldet",
      "outputs": [
        {
          "components": [
            {
              "internalType": "uint256",
              "name": "pid",
              "type": "uint256"
            },
            {
              "internalType": "string",
              "name": "DTRMS",
              "type": "string"
            },
            {
              "internalType": "string",
              "name": "TMTRS",
              "type": "string"
            },
            {
              "internalType": "string",
              "name": "TMTSS",
              "type": "string"
            }
          ],
          "internalType": "struct finals.DescS",
          "name": "",
          "type": "tuple"
        }
      ],
      "stateMutability": "view",
      "type": "function",
      "constant": true
    },
    {
      "inputs": [
        {
          "internalType": "uint256",
          "name": "_productId",
          "type": "uint256"
        }
      ],
      "name": "getProductHistory",
      "outputs": [
        {
          "internalType": "string[]",
          "name": "",
          "type": "string[]"
        }
      ],
      "stateMutability": "view",
      "type": "function",
      "constant": true
    },
    {
      "inputs": [
        {
          "internalType": "uint256",
          "name": "_productId",
          "type": "uint256"
        }
      ],
      "name": "isProductPresent",
      "outputs": [
        {
          "internalType": "bool",
          "name": "",
          "type": "bool"
        }
      ],
      "stateMutability": "view",
      "type": "function",
      "constant": true
    }
  ],
  "bytecode": "0x608060405234801561001057600080fd5b50336000806101000a81548173ffffffffffffffffffffffffffffffffffffffff021916908373ffffffffffffffffffffffffffffffffffffffff1602179055506138d9806100606000396000f3fe608060405234801561001057600080fd5b506004361061010b5760003560e01c8063650758a3116100a2578063a591e6f711610071578063a591e6f714610318578063aef753ae14610348578063bfe1092814610364578063e321deef14610382578063f4527e71146103b25761010b565b8063650758a31461027c57806374754282146102ac57806375619ab5146102ca5780637acc0b20146102e65761010b565b80634c1249fc116100de5780634c1249fc146101c457806357a096a1146101e257806358c5694414610212578063611f7fcc146102425761010b565b80631803b6ea1461011057806318969569146101435780633c36d656146101735780634a1f6125146101a8575b600080fd5b61012a60048036038101906101259190612c54565b6103e2565b60405161013a94939291906134b4565b60405180910390f35b61015d60048036038101906101589190612d28565b6105aa565b60405161016a919061336e565b60405180910390f35b61018d60048036038101906101889190612c54565b61088f565b60405161019f9695949392919061350e565b60405180910390f35b6101c260048036038101906101bd9190612a4b565b610b73565b005b6101cc610c47565b6040516101d99190613316565b60405180910390f35b6101fc60048036038101906101f79190612c54565b610c6d565b6040516102099190613331565b60405180910390f35b61022c60048036038101906102279190612c54565b610d62565b6040516102399190613410565b60405180910390f35b61025c60048036038101906102579190612c54565b611163565b6040516102739b9a99989796959493929190613592565b60405180910390f35b61029660048036038101906102919190612c54565b61170d565b6040516102a39190613454565b60405180910390f35b6102b46119ea565b6040516102c19190613316565b60405180910390f35b6102e460048036038101906102df9190612a4b565b611a0e565b005b61030060048036038101906102fb9190612c54565b611ae0565b60405161030f93929190613476565b60405180910390f35b610332600480360381019061032d9190612c54565b611bb2565b60405161033f9190613432565b60405180910390f35b610362600480360381019061035d9190612a74565b61228c565b005b61036c612564565b6040516103799190613316565b60405180910390f35b61039c60048036038101906103979190612c7d565b61258a565b6040516103a9919061336e565b60405180910390f35b6103cc60048036038101906103c79190612c54565b61283b565b6040516103d99190613353565b60405180910390f35b600660205280600052604060002060009150905080600001549080600101805461040b906137d4565b80601f0160208091040260200160405190810160405280929190818152602001828054610437906137d4565b80156104845780601f1061045957610100808354040283529160200191610484565b820191906000526020600020905b81548152906001019060200180831161046757829003601f168201915b505050505090806002018054610499906137d4565b80601f01602080910402602001604051908101604052809291908181526020018280546104c5906137d4565b80156105125780601f106104e757610100808354040283529160200191610512565b820191906000526020600020905b8154815290600101906020018083116104f557829003601f168201915b505050505090806003018054610527906137d4565b80601f0160208091040260200160405190810160405280929190818152602001828054610553906137d4565b80156105a05780601f10610575576101008083540402835291602001916105a0565b820191906000526020600020905b81548152906001019060200180831161058357829003601f168201915b5050505050905084565b6060600160009054906101000a900473ffffffffffffffffffffffffffffffffffffffff1673ffffffffffffffffffffffffffffffffffffffff163373ffffffffffffffffffffffffffffffffffffffff161461063c576040517f08c379a0000000000000000000000000000000000000000000000000000000008152600401610633906133b0565b60405180910390fd5b60006106478861283b565b905060011515811515141561084b576000600360008a815260200190815260200160002090506000600560008b81526020019081526020016000209050338260020160006101000a81548173ffffffffffffffffffffffffffffffffffffffff021916908373ffffffffffffffffffffffffffffffffffffffff1602179055506040518060400160405280600e81526020017f4174204469737472696275746f7200000000000000000000000000000000000081525082600101908051906020019061071492919061285e565b508982600001819055508160030180600181540180825580915050600190039060005260206000200160006040518060400160405280600b81526020017f4469737472696275746f720000000000000000000000000000000000000000008152509091909150908051906020019061078d92919061285e565b50888160010190805190602001906107a692919061285e565b50878160020190805190602001906107bf92919061285e565b50868160030190805190602001906107d892919061285e565b50858160040190805190602001906107f192919061285e565b508481600501908051906020019061080a92919061285e565b506040518060400160405280601081526020017f5570646174652053756363657366756c000000000000000000000000000000008152509350505050610885565b6040518060400160405280601981526020017f5468652070726f6475637420494420697320696e76616c6964000000000000008152509150505b9695505050505050565b60056020528060005260406000206000915090508060000154908060010180546108b8906137d4565b80601f01602080910402602001604051908101604052809291908181526020018280546108e4906137d4565b80156109315780601f1061090657610100808354040283529160200191610931565b820191906000526020600020905b81548152906001019060200180831161091457829003601f168201915b505050505090806002018054610946906137d4565b80601f0160208091040260200160405190810160405280929190818152602001828054610972906137d4565b80156109bf5780601f10610994576101008083540402835291602001916109bf565b820191906000526020600020905b8154815290600101906020018083116109a257829003601f168201915b5050505050908060030180546109d4906137d4565b80601f0160208091040260200160405190810160405280929190818152602001828054610a00906137d4565b8015610a4d5780601f10610a2257610100808354040283529160200191610a4d565b820191906000526020600020905b815481529060010190602001808311610a3057829003601f168201915b505050505090806004018054610a62906137d4565b80601f0160208091040260200160405190810160405280929190818152602001828054610a8e906137d4565b8015610adb5780601f10610ab057610100808354040283529160200191610adb565b820191906000526020600020905b815481529060010190602001808311610abe57829003601f168201915b505050505090806005018054610af0906137d4565b80601f0160208091040260200160405190810160405280929190818152602001828054610b1c906137d4565b8015610b695780601f10610b3e57610100808354040283529160200191610b69565b820191906000526020600020905b815481529060010190602001808311610b4c57829003601f168201915b5050505050905086565b600160009054906101000a900473ffffffffffffffffffffffffffffffffffffffff1673ffffffffffffffffffffffffffffffffffffffff163373ffffffffffffffffffffffffffffffffffffffff1614610c03576040517f08c379a0000000000000000000000000000000000000000000000000000000008152600401610bfa906133b0565b60405180910390fd5b80600260006101000a81548173ffffffffffffffffffffffffffffffffffffffff021916908373ffffffffffffffffffffffffffffffffffffffff16021790555050565b600260009054906101000a900473ffffffffffffffffffffffffffffffffffffffff1681565b6060600060036000848152602001908152602001600020905080600301805480602002602001604051908101604052809291908181526020016000905b82821015610d56578382906000526020600020018054610cc9906137d4565b80601f0160208091040260200160405190810160405280929190818152602001828054610cf5906137d4565b8015610d425780601f10610d1757610100808354040283529160200191610d42565b820191906000526020600020905b815481529060010190602001808311610d2557829003601f168201915b505050505081526020019060010190610caa565b50505050915050919050565b610d6a6128e4565b600160009054906101000a900473ffffffffffffffffffffffffffffffffffffffff1673ffffffffffffffffffffffffffffffffffffffff163373ffffffffffffffffffffffffffffffffffffffff1614610dfa576040517f08c379a0000000000000000000000000000000000000000000000000000000008152600401610df1906133b0565b60405180910390fd5b600060036000848152602001908152602001600020600001541415610e54576040517f08c379a0000000000000000000000000000000000000000000000000000000008152600401610e4b906133d0565b60405180910390fd5b6000600560008481526020019081526020016000209050806040518060c001604052908160008201548152602001600182018054610e91906137d4565b80601f0160208091040260200160405190810160405280929190818152602001828054610ebd906137d4565b8015610f0a5780601f10610edf57610100808354040283529160200191610f0a565b820191906000526020600020905b815481529060010190602001808311610eed57829003601f168201915b50505050508152602001600282018054610f23906137d4565b80601f0160208091040260200160405190810160405280929190818152602001828054610f4f906137d4565b8015610f9c5780601f10610f7157610100808354040283529160200191610f9c565b820191906000526020600020905b815481529060010190602001808311610f7f57829003601f168201915b50505050508152602001600382018054610fb5906137d4565b80601f0160208091040260200160405190810160405280929190818152602001828054610fe1906137d4565b801561102e5780601f106110035761010080835404028352916020019161102e565b820191906000526020600020905b81548152906001019060200180831161101157829003601f168201915b50505050508152602001600482018054611047906137d4565b80601f0160208091040260200160405190810160405280929190818152602001828054611073906137d4565b80156110c05780601f10611095576101008083540402835291602001916110c0565b820191906000526020600020905b8154815290600101906020018083116110a357829003601f168201915b505050505081526020016005820180546110d9906137d4565b80601f0160208091040260200160405190810160405280929190818152602001828054611105906137d4565b80156111525780601f1061112757610100808354040283529160200191611152565b820191906000526020600020905b81548152906001019060200180831161113557829003601f168201915b505050505081525050915050919050565b600460205280600052604060002060009150905080600001549080600101805461118c906137d4565b80601f01602080910402602001604051908101604052809291908181526020018280546111b8906137d4565b80156112055780601f106111da57610100808354040283529160200191611205565b820191906000526020600020905b8154815290600101906020018083116111e857829003601f168201915b50505050509080600201805461121a906137d4565b80601f0160208091040260200160405190810160405280929190818152602001828054611246906137d4565b80156112935780601f1061126857610100808354040283529160200191611293565b820191906000526020600020905b81548152906001019060200180831161127657829003601f168201915b5050505050908060030180546112a8906137d4565b80601f01602080910402602001604051908101604052809291908181526020018280546112d4906137d4565b80156113215780601f106112f657610100808354040283529160200191611321565b820191906000526020600020905b81548152906001019060200180831161130457829003601f168201915b505050505090806004018054611336906137d4565b80601f0160208091040260200160405190810160405280929190818152602001828054611362906137d4565b80156113af5780601f10611384576101008083540402835291602001916113af565b820191906000526020600020905b81548152906001019060200180831161139257829003601f168201915b5050505050908060050180546113c4906137d4565b80601f01602080910402602001604051908101604052809291908181526020018280546113f0906137d4565b801561143d5780601f106114125761010080835404028352916020019161143d565b820191906000526020600020905b81548152906001019060200180831161142057829003601f168201915b505050505090806006018054611452906137d4565b80601f016020809104026020016040519081016040528092919081815260200182805461147e906137d4565b80156114cb5780601f106114a0576101008083540402835291602001916114cb565b820191906000526020600020905b8154815290600101906020018083116114ae57829003601f168201915b5050505050908060070180546114e0906137d4565b80601f016020809104026020016040519081016040528092919081815260200182805461150c906137d4565b80156115595780601f1061152e57610100808354040283529160200191611559565b820191906000526020600020905b81548152906001019060200180831161153c57829003601f168201915b50505050509080600801805461156e906137d4565b80601f016020809104026020016040519081016040528092919081815260200182805461159a906137d4565b80156115e75780601f106115bc576101008083540402835291602001916115e7565b820191906000526020600020905b8154815290600101906020018083116115ca57829003601f168201915b5050505050908060090180546115fc906137d4565b80601f0160208091040260200160405190810160405280929190818152602001828054611628906137d4565b80156116755780601f1061164a57610100808354040283529160200191611675565b820191906000526020600020905b81548152906001019060200180831161165857829003601f168201915b50505050509080600a01805461168a906137d4565b80601f01602080910402602001604051908101604052809291908181526020018280546116b6906137d4565b80156117035780601f106116d857610100808354040283529160200191611703565b820191906000526020600020905b8154815290600101906020018083116116e657829003601f168201915b505050505090508b565b61171561291a565b600260009054906101000a900473ffffffffffffffffffffffffffffffffffffffff1673ffffffffffffffffffffffffffffffffffffffff163373ffffffffffffffffffffffffffffffffffffffff16146117a5576040517f08c379a000000000000000000000000000000000000000000000000000000000815260040161179c906133f0565b60405180910390fd5b6000600360008481526020019081526020016000206000015414156117ff576040517f08c379a00000000000000000000000000000000000000000000000000000000081526004016117f6906133d0565b60405180910390fd5b6000600660008481526020019081526020016000209050806040518060800160405290816000820154815260200160018201805461183c906137d4565b80601f0160208091040260200160405190810160405280929190818152602001828054611868906137d4565b80156118b55780601f1061188a576101008083540402835291602001916118b5565b820191906000526020600020905b81548152906001019060200180831161189857829003601f168201915b505050505081526020016002820180546118ce906137d4565b80601f01602080910402602001604051908101604052809291908181526020018280546118fa906137d4565b80156119475780601f1061191c57610100808354040283529160200191611947565b820191906000526020600020905b81548152906001019060200180831161192a57829003601f168201915b50505050508152602001600382018054611960906137d4565b80601f016020809104026020016040519081016040528092919081815260200182805461198c906137d4565b80156119d95780601f106119ae576101008083540402835291602001916119d9565b820191906000526020600020905b8154815290600101906020018083116119bc57829003601f168201915b505050505081525050915050919050565b60008054906101000a900473ffffffffffffffffffffffffffffffffffffffff1681565b60008054906101000a900473ffffffffffffffffffffffffffffffffffffffff1673ffffffffffffffffffffffffffffffffffffffff163373ffffffffffffffffffffffffffffffffffffffff1614611a9c576040517f08c379a0000000000000000000000000000000000000000000000000000000008152600401611a9390613390565b60405180910390fd5b80600160006101000a81548173ffffffffffffffffffffffffffffffffffffffff021916908373ffffffffffffffffffffffffffffffffffffffff16021790555050565b6003602052806000526040600020600091509050806000015490806001018054611b09906137d4565b80601f0160208091040260200160405190810160405280929190818152602001828054611b35906137d4565b8015611b825780601f10611b5757610100808354040283529160200191611b82565b820191906000526020600020905b815481529060010190602001808311611b6557829003601f168201915b5050505050908060020160009054906101000a900473ffffffffffffffffffffffffffffffffffffffff16905083565b611bba612942565b60008054906101000a900473ffffffffffffffffffffffffffffffffffffffff1673ffffffffffffffffffffffffffffffffffffffff163373ffffffffffffffffffffffffffffffffffffffff1614611c48576040517f08c379a0000000000000000000000000000000000000000000000000000000008152600401611c3f90613390565b60405180910390fd5b600060036000848152602001908152602001600020600001541415611ca2576040517f08c379a0000000000000000000000000000000000000000000000000000000008152600401611c99906133d0565b60405180910390fd5b6000600460008481526020019081526020016000209050806040518061016001604052908160008201548152602001600182018054611ce0906137d4565b80601f0160208091040260200160405190810160405280929190818152602001828054611d0c906137d4565b8015611d595780601f10611d2e57610100808354040283529160200191611d59565b820191906000526020600020905b815481529060010190602001808311611d3c57829003601f168201915b50505050508152602001600282018054611d72906137d4565b80601f0160208091040260200160405190810160405280929190818152602001828054611d9e906137d4565b8015611deb5780601f10611dc057610100808354040283529160200191611deb565b820191906000526020600020905b815481529060010190602001808311611dce57829003601f168201915b50505050508152602001600382018054611e04906137d4565b80601f0160208091040260200160405190810160405280929190818152602001828054611e30906137d4565b8015611e7d5780601f10611e5257610100808354040283529160200191611e7d565b820191906000526020600020905b815481529060010190602001808311611e6057829003601f168201915b50505050508152602001600482018054611e96906137d4565b80601f0160208091040260200160405190810160405280929190818152602001828054611ec2906137d4565b8015611f0f5780601f10611ee457610100808354040283529160200191611f0f565b820191906000526020600020905b815481529060010190602001808311611ef257829003601f168201915b50505050508152602001600582018054611f28906137d4565b80601f0160208091040260200160405190810160405280929190818152602001828054611f54906137d4565b8015611fa15780601f10611f7657610100808354040283529160200191611fa1565b820191906000526020600020905b815481529060010190602001808311611f8457829003601f168201915b50505050508152602001600682018054611fba906137d4565b80601f0160208091040260200160405190810160405280929190818152602001828054611fe6906137d4565b80156120335780601f1061200857610100808354040283529160200191612033565b820191906000526020600020905b81548152906001019060200180831161201657829003601f168201915b5050505050815260200160078201805461204c906137d4565b80601f0160208091040260200160405190810160405280929190818152602001828054612078906137d4565b80156120c55780601f1061209a576101008083540402835291602001916120c5565b820191906000526020600020905b8154815290600101906020018083116120a857829003601f168201915b505050505081526020016008820180546120de906137d4565b80601f016020809104026020016040519081016040528092919081815260200182805461210a906137d4565b80156121575780601f1061212c57610100808354040283529160200191612157565b820191906000526020600020905b81548152906001019060200180831161213a57829003601f168201915b50505050508152602001600982018054612170906137d4565b80601f016020809104026020016040519081016040528092919081815260200182805461219c906137d4565b80156121e95780601f106121be576101008083540402835291602001916121e9565b820191906000526020600020905b8154815290600101906020018083116121cc57829003601f168201915b50505050508152602001600a82018054612202906137d4565b80601f016020809104026020016040519081016040528092919081815260200182805461222e906137d4565b801561227b5780601f106122505761010080835404028352916020019161227b565b820191906000526020600020905b81548152906001019060200180831161225e57829003601f168201915b505050505081525050915050919050565b60008054906101000a900473ffffffffffffffffffffffffffffffffffffffff1673ffffffffffffffffffffffffffffffffffffffff163373ffffffffffffffffffffffffffffffffffffffff161461231a576040517f08c379a000000000000000000000000000000000000000000000000000000000815260040161231190613390565b60405180910390fd5b60006003600083815260200190815260200160002090506000600460008481526020019081526020016000209050338260020160006101000a81548173ffffffffffffffffffffffffffffffffffffffff021916908373ffffffffffffffffffffffffffffffffffffffff1602179055506040518060400160405280600e81526020017f4174204d616e75666163747572650000000000000000000000000000000000008152508260010190805190602001906123d892919061285e565b508282600001819055508160030180600181540180825580915050600190039060005260206000200160006040518060400160405280600b81526020017f4d616e75666163747572650000000000000000000000000000000000000000008152509091909150908051906020019061245192919061285e565b508281600001819055508c81600101908051906020019061247392919061285e565b508b81600201908051906020019061248c92919061285e565b508a8160030190805190602001906124a592919061285e565b50898160040190805190602001906124be92919061285e565b50888160050190805190602001906124d792919061285e565b50878160060190805190602001906124f092919061285e565b508681600701908051906020019061250992919061285e565b508581600801908051906020019061252292919061285e565b508481600901908051906020019061253b92919061285e565b508381600a01908051906020019061255492919061285e565b5050505050505050505050505050565b600160009054906101000a900473ffffffffffffffffffffffffffffffffffffffff1681565b6060600260009054906101000a900473ffffffffffffffffffffffffffffffffffffffff1673ffffffffffffffffffffffffffffffffffffffff163373ffffffffffffffffffffffffffffffffffffffff161461261c576040517f08c379a0000000000000000000000000000000000000000000000000000000008152600401612613906133f0565b60405180910390fd5b60006126278661283b565b90506001151581151514156127f95760006003600088815260200190815260200160002090506000600660008981526020019081526020016000209050338260020160006101000a81548173ffffffffffffffffffffffffffffffffffffffff021916908373ffffffffffffffffffffffffffffffffffffffff1602179055506040518060400160405280600981526020017f41742053656c6c657200000000000000000000000000000000000000000000008152508260010190805190602001906126f492919061285e565b508782600001819055508160030180600181540180825580915050600190039060005260206000200160006040518060400160405280600681526020017f53656c6c657200000000000000000000000000000000000000000000000000008152509091909150908051906020019061276d92919061285e565b508681600101908051906020019061278692919061285e565b508581600201908051906020019061279f92919061285e565b50848160030190805190602001906127b892919061285e565b506040518060400160405280601081526020017f5570646174652053756363657366756c000000000000000000000000000000008152509350505050612833565b6040518060400160405280601981526020017f5468652070726f6475637420494420697320496e76616c6964000000000000008152509150505b949350505050565b600080600360008481526020019081526020016000206000015414159050919050565b82805461286a906137d4565b90600052602060002090601f01602090048101928261288c57600085556128d3565b82601f106128a557805160ff19168380011785556128d3565b828001600101855582156128d3579182015b828111156128d25782518255916020019190600101906128b7565b5b5090506128e0919061299c565b5090565b6040518060c001604052806000815260200160608152602001606081526020016060815260200160608152602001606081525090565b6040518060800160405280600081526020016060815260200160608152602001606081525090565b60405180610160016040528060008152602001606081526020016060815260200160608152602001606081526020016060815260200160608152602001606081526020016060815260200160608152602001606081525090565b5b808211156129b557600081600090555060010161299d565b5090565b60006129cc6129c7846136b4565b613683565b9050828152602081018484840111156129e457600080fd5b6129ef848285613792565b509392505050565b600081359050612a0681613875565b92915050565b600082601f830112612a1d57600080fd5b8135612a2d8482602086016129b9565b91505092915050565b600081359050612a458161388c565b92915050565b600060208284031215612a5d57600080fd5b6000612a6b848285016129f7565b91505092915050565b60008060008060008060008060008060006101608c8e031215612a9657600080fd5b60008c013567ffffffffffffffff811115612ab057600080fd5b612abc8e828f01612a0c565b9b505060208c013567ffffffffffffffff811115612ad957600080fd5b612ae58e828f01612a0c565b9a505060408c013567ffffffffffffffff811115612b0257600080fd5b612b0e8e828f01612a0c565b99505060608c013567ffffffffffffffff811115612b2b57600080fd5b612b378e828f01612a0c565b98505060808c013567ffffffffffffffff811115612b5457600080fd5b612b608e828f01612a0c565b97505060a08c013567ffffffffffffffff811115612b7d57600080fd5b612b898e828f01612a0c565b96505060c08c013567ffffffffffffffff811115612ba657600080fd5b612bb28e828f01612a0c565b95505060e08c013567ffffffffffffffff811115612bcf57600080fd5b612bdb8e828f01612a0c565b9450506101008c013567ffffffffffffffff811115612bf957600080fd5b612c058e828f01612a0c565b9350506101208c013567ffffffffffffffff811115612c2357600080fd5b612c2f8e828f01612a0c565b925050610140612c418e828f01612a36565b9150509295989b509295989b9093969950565b600060208284031215612c6657600080fd5b6000612c7484828501612a36565b91505092915050565b60008060008060808587031215612c9357600080fd5b6000612ca187828801612a36565b945050602085013567ffffffffffffffff811115612cbe57600080fd5b612cca87828801612a0c565b935050604085013567ffffffffffffffff811115612ce757600080fd5b612cf387828801612a0c565b925050606085013567ffffffffffffffff811115612d1057600080fd5b612d1c87828801612a0c565b91505092959194509250565b60008060008060008060c08789031215612d4157600080fd5b6000612d4f89828a01612a36565b965050602087013567ffffffffffffffff811115612d6c57600080fd5b612d7889828a01612a0c565b955050604087013567ffffffffffffffff811115612d9557600080fd5b612da189828a01612a0c565b945050606087013567ffffffffffffffff811115612dbe57600080fd5b612dca89828a01612a0c565b935050608087013567ffffffffffffffff811115612de757600080fd5b612df389828a01612a0c565b92505060a087013567ffffffffffffffff811115612e1057600080fd5b612e1c89828a01612a0c565b9150509295509295509295565b6000612e358383612ed0565b905092915050565b612e468161374a565b82525050565b6000612e57826136f4565b612e618185613717565b935083602082028501612e73856136e4565b8060005b85811015612eaf5784840389528151612e908582612e29565b9450612e9b8361370a565b925060208a01995050600181019050612e77565b50829750879550505050505092915050565b612eca8161375c565b82525050565b6000612edb826136ff565b612ee58185613728565b9350612ef58185602086016137a1565b612efe81613864565b840191505092915050565b6000612f14826136ff565b612f1e8185613739565b9350612f2e8185602086016137a1565b612f3781613864565b840191505092915050565b6000612f4f602d83613739565b91507f4f6e6c7920746865206d616e7566616374757265722063616e2063616c6c207460008301527f6869732066756e6374696f6e2e000000000000000000000000000000000000006020830152604082019050919050565b6000612fb5602c83613739565b91507f4f6e6c7920746865206469737472696275746f722063616e2063616c6c20746860008301527f69732066756e6374696f6e2e00000000000000000000000000000000000000006020830152604082019050919050565b600061301b601183613739565b91507f50726f64756374206e6f7420666f756e640000000000000000000000000000006000830152602082019050919050565b600061305b602983613739565b91507f4f6e6c79207468652072657461696c65722063616e2063616c6c20746869732060008301527f66756e6374696f6e2e00000000000000000000000000000000000000000000006020830152604082019050919050565b600060c0830160008301516130cc60008601826132f8565b50602083015184820360208601526130e48282612ed0565b915050604083015184820360408601526130fe8282612ed0565b915050606083015184820360608601526131188282612ed0565b915050608083015184820360808601526131328282612ed0565b91505060a083015184820360a086015261314c8282612ed0565b9150508091505092915050565b60006101608301600083015161317260008601826132f8565b506020830151848203602086015261318a8282612ed0565b915050604083015184820360408601526131a48282612ed0565b915050606083015184820360608601526131be8282612ed0565b915050608083015184820360808601526131d88282612ed0565b91505060a083015184820360a08601526131f28282612ed0565b91505060c083015184820360c086015261320c8282612ed0565b91505060e083015184820360e08601526132268282612ed0565b9150506101008301518482036101008601526132428282612ed0565b91505061012083015184820361012086015261325e8282612ed0565b91505061014083015184820361014086015261327a8282612ed0565b9150508091505092915050565b600060808301600083015161329f60008601826132f8565b50602083015184820360208601526132b78282612ed0565b915050604083015184820360408601526132d18282612ed0565b915050606083015184820360608601526132eb8282612ed0565b9150508091505092915050565b61330181613788565b82525050565b61331081613788565b82525050565b600060208201905061332b6000830184612e3d565b92915050565b6000602082019050818103600083015261334b8184612e4c565b905092915050565b60006020820190506133686000830184612ec1565b92915050565b600060208201905081810360008301526133888184612f09565b905092915050565b600060208201905081810360008301526133a981612f42565b9050919050565b600060208201905081810360008301526133c981612fa8565b9050919050565b600060208201905081810360008301526133e98161300e565b9050919050565b600060208201905081810360008301526134098161304e565b9050919050565b6000602082019050818103600083015261342a81846130b4565b905092915050565b6000602082019050818103600083015261344c8184613159565b905092915050565b6000602082019050818103600083015261346e8184613287565b905092915050565b600060608201905061348b6000830186613307565b818103602083015261349d8185612f09565b90506134ac6040830184612e3d565b949350505050565b60006080820190506134c96000830187613307565b81810360208301526134db8186612f09565b905081810360408301526134ef8185612f09565b905081810360608301526135038184612f09565b905095945050505050565b600060c0820190506135236000830189613307565b81810360208301526135358188612f09565b905081810360408301526135498187612f09565b9050818103606083015261355d8186612f09565b905081810360808301526135718185612f09565b905081810360a08301526135858184612f09565b9050979650505050505050565b6000610160820190506135a8600083018e613307565b81810360208301526135ba818d612f09565b905081810360408301526135ce818c612f09565b905081810360608301526135e2818b612f09565b905081810360808301526135f6818a612f09565b905081810360a083015261360a8189612f09565b905081810360c083015261361e8188612f09565b905081810360e08301526136328187612f09565b90508181036101008301526136478186612f09565b905081810361012083015261365c8185612f09565b90508181036101408301526136718184612f09565b90509c9b505050505050505050505050565b6000604051905081810181811067ffffffffffffffff821117156136aa576136a9613835565b5b8060405250919050565b600067ffffffffffffffff8211156136cf576136ce613835565b5b601f19601f8301169050602081019050919050565b6000819050602082019050919050565b600081519050919050565b600081519050919050565b6000602082019050919050565b600082825260208201905092915050565b600082825260208201905092915050565b600082825260208201905092915050565b600061375582613768565b9050919050565b60008115159050919050565b600073ffffffffffffffffffffffffffffffffffffffff82169050919050565b6000819050919050565b82818337600083830152505050565b60005b838110156137bf5780820151818401526020810190506137a4565b838111156137ce576000848401525b50505050565b600060028204905060018216806137ec57607f821691505b60208210811415613800576137ff613806565b5b50919050565b7f4e487b7100000000000000000000000000000000000000000000000000000000600052602260045260246000fd5b7f4e487b7100000000000000000000000000000000000000000000000000000000600052604160045260246000fd5b6000601f19601f8301169050919050565b61387e8161374a565b811461388957600080fd5b50565b61389581613788565b81146138a057600080fd5b5056fea26469706673582212205317f59707d81b55e0155d1f45bf8e8d043d66b1ea6b1dda22229d653eb5305064736f6c63430008000033",
  "immutableReferences": {},
  "source": "// SPDX-License-Identifier: GPL-3.0\r\npragma solidity >=0.4.16 <0.9.0;\r\n\r\ncontract finals {\r\n    address public manufacturer;\r\n    address public distributor;\r\n    address public retailer;\r\n    struct Product {\r\n        uint productId;\r\n        string Location;\r\n        address owner;\r\n        string[] ownerHist;\r\n    }\r\n    struct DescM{\r\n        uint pid;\r\n        string CATRM;\r\n        string DPMM;\r\n        string DTQTMM;\r\n        string DTPM;\r\n        string DEM;\r\n        string DTPMM;\r\n        string TMTMM;\r\n        string VHM;\r\n        string ISOM;\r\n        string FSSAIM;\r\n    }\r\n    struct DescD{\r\n        uint pid;\r\n        string DTMD;\r\n        string QMRD;\r\n        string DTPMD;\r\n        string TMDD;\r\n        string VHD;\r\n    }\r\n    struct DescS{\r\n        uint pid;\r\n        string DTRMS;\r\n        string TMTRS;\r\n        string TMTSS;\r\n    }\r\n    \r\n    mapping(uint256 => Product) public products;\r\n    mapping(uint256 => DescM) public descM;\r\n    mapping(uint256 => DescD) public descD;\r\n    mapping(uint256 => DescS) public descS;\r\n    \r\n    event ProductCreated(string description, uint256 productId, address manufacturer);\r\n    \r\n    constructor() {\r\n        manufacturer=msg.sender;\r\n    }\r\n        modifier onlyManufacturer() {\r\n        require(msg.sender == manufacturer, \"Only the manufacturer can call this function.\");\r\n        _;\r\n    }\r\n    \r\n    modifier onlyDistributor() {\r\n        require(msg.sender == distributor, \"Only the distributor can call this function.\");\r\n        _;\r\n    }\r\n    \r\n    modifier onlyRetailer() {\r\n        require(msg.sender == retailer, \"Only the retailer can call this function.\");\r\n        _;\r\n    }\r\n    \r\n    function setDistributor(address _distributor) external onlyManufacturer  {\r\n        distributor = _distributor;\r\n    }\r\n    \r\n    function setRetailer(address _retailer) external onlyDistributor  {\r\n        retailer = _retailer;\r\n    }\r\n    \r\n    function updateManufacturerVariables(string memory _CATRM,string memory _DPMM,string memory _DTQTMM,string memory _DTPM,string memory _DEM,string memory _DTPMM,string memory _TMTMM, \r\n     string memory _VHM,string memory _ISOM,string memory _FSSAIM, uint256 _productId) external onlyManufacturer {\r\n        Product storage product = products[_productId];\r\n        DescM storage description =descM[_productId];\r\n        product.owner=msg.sender;\r\n        product.Location=\"At Manufacture\";\r\n        product.productId=_productId;\r\n        product.ownerHist.push(\"Manufacture\");\r\n        description.pid=_productId;\r\n        description.CATRM=_CATRM;\r\n        description.DPMM=_DPMM;\r\n        description.DTQTMM=_DTQTMM;\r\n        description.DTPM=_DTPM;\r\n        description.DEM=_DEM;\r\n        description.DTPMM=_DTPMM;\r\n        description.TMTMM=_TMTMM;\r\n        description.VHM=_VHM;\r\n        description.ISOM=_ISOM;\r\n        description.FSSAIM=_FSSAIM;\r\n\r\n}\r\n    \r\n    function updateDistributorVariables(uint256 _pid,string memory _DTMD,string memory _QMRD,string memory _DTPMD,string memory _TMDD,string memory _VHD) external onlyDistributor  returns(string memory) {\r\n        bool check=isProductPresent(_pid);\r\n        if (check==true){\r\n            Product storage product = products[_pid];\r\n            DescD storage description=descD[_pid];\r\n            product.owner=msg.sender;\r\n            product.Location=\"At Distributor\";\r\n            product.productId=_pid;\r\n            product.ownerHist.push(\"Distributor\");\r\n            description.DTMD=_DTMD;\r\n            description.QMRD=_QMRD;\r\n            description.DTPMD=_DTPMD;\r\n            description.TMDD=_TMDD;\r\n            description.VHD=_VHD;\r\n            return \"Update Succesful\";\r\n        }\r\n        else{\r\n            return \"The product ID is invalid\";\r\n        }\r\n    }\r\n    \r\n    function updateRetailerVariables(uint256 _pid,string memory _DTRMS,string memory _TMTRS,string memory _TMTSS) external onlyRetailer  returns (string memory) {\r\n         bool check=isProductPresent(_pid);\r\n        if (check==true){\r\n            Product storage product = products[_pid];\r\n            DescS storage description=descS[_pid];\r\n            product.owner=msg.sender;\r\n            product.Location=\"At Seller\";\r\n            product.productId=_pid;\r\n            product.ownerHist.push(\"Seller\");\r\n            description.DTRMS=_DTRMS;\r\n            description.TMTRS=_TMTRS;\r\n            description.TMTSS=_TMTSS;\r\n            return \"Update Succesful\";\r\n        }\r\n        else{\r\n            return \"The product ID is Invalid\";\r\n        }\r\n    }\r\n    \r\n    function getprodmandet(uint256 _pid)external onlyManufacturer  view returns (DescM memory){\r\n        require(products[_pid].productId != 0, \"Product not found\");\r\n            DescM storage description=descM[_pid];\r\n            return description;\r\n        \r\n    }\r\n        function getproddistdet(uint256 _pid)external onlyDistributor view returns (DescD memory){\r\n        require(products[_pid].productId != 0, \"Product not found\");\r\n            DescD storage description=descD[_pid];\r\n            return description;\r\n        \r\n    }\r\n        function getprodseldet(uint256 _pid)external onlyRetailer  view returns (DescS memory){\r\n        require(products[_pid].productId != 0, \"Product not found\");\r\n            DescS storage description=descS[_pid];\r\n            return description;\r\n        \r\n    }\r\n    \r\n    function getProductHistory(uint256 _productId) public view returns (string[] memory) {\r\n        Product storage product = products[_productId];\r\n        return product.ownerHist;\r\n    }\r\n    \r\n\r\n     function getRole(address _address) private view returns (string memory) {\r\n        if (_address == manufacturer) {\r\n            return \"manufacturer\";\r\n        } else if (_address == distributor) {\r\n            return \"distributor\";\r\n        } else if (_address == retailer) {\r\n            return \"retailer\";\r\n        } else {\r\n            return \"unknown\";\r\n        }\r\n    }\r\n    function isProductPresent(uint256 _productId) public view returns (bool) {\r\n        return products[_productId].productId != 0;\r\n    }\r\n}\r\n",
  "sourcePath": "C:\\Users\\sangh\\OneDrive\\Desktop\\final\\bc\\contracts\\finals.sol",
  "compiler": {
    "name": "solc",
    "version": "0.8.0+commit.c7dfd78e.Emscripten.clang"
  },
  "schemaVersion": "3.4.14",
  "updatedAt": "2023-06-23T04:43:06.491Z",
  "networkType": "ethereum",
  "devdoc": {
    "kind": "dev",
    "methods": {},
    "version": 1
  },
  "userdoc": {
    "kind": "user",
    "methods": {},
    "version": 1
  }
}