{
  "contractName": "finals",
  "abi": [
    {
      "inputs": [],
      "stateMutability": "nonpayable",
      "type": "constructor"
    },
    {
      "anonymous": false,
      "inputs": [
        {
          "indexed": false,
          "internalType": "string",
          "name": "description",
          "type": "string"
        },
        {
          "indexed": false,
          "internalType": "uint256",
          "name": "productId",
          "type": "uint256"
        },
        {
          "indexed": false,
          "internalType": "address",
          "name": "manufacturer",
          "type": "address"
        }
      ],
      "name": "ProductCreated",
      "type": "event"
    },
    {
      "inputs": [
        {
          "internalType": "uint256",
          "name": "",
          "type": "uint256"
        }
      ],
      "name": "descD",
      "outputs": [
        {
          "internalType": "uint256",
          "name": "pid",
          "type": "uint256"
        },
        {
          "internalType": "string",
          "name": "DTMD",
          "type": "string"
        },
        {
          "internalType": "string",
          "name": "QMRD",
          "type": "string"
        },
        {
          "internalType": "string",
          "name": "DTPMD",
          "type": "string"
        },
        {
          "internalType": "string",
          "name": "TMDD",
          "type": "string"
        },
        {
          "internalType": "string",
          "name": "VHD",
          "type": "string"
        }
      ],
      "stateMutability": "view",
      "type": "function",
      "constant": true
    },
    {
      "inputs": [
        {
          "internalType": "uint256",
          "name": "",
          "type": "uint256"
        }
      ],
      "name": "descM",
      "outputs": [
        {
          "internalType": "uint256",
          "name": "pid",
          "type": "uint256"
        },
        {
          "internalType": "string",
          "name": "CATRM",
          "type": "string"
        },
        {
          "internalType": "string",
          "name": "DPMM",
          "type": "string"
        },
        {
          "internalType": "string",
          "name": "DTQTMM",
          "type": "string"
        },
        {
          "internalType": "string",
          "name": "DTPM",
          "type": "string"
        },
        {
          "internalType": "string",
          "name": "DEM",
          "type": "string"
        },
        {
          "internalType": "string",
          "name": "DTPMM",
          "type": "string"
        },
        {
          "internalType": "string",
          "name": "TMTMM",
          "type": "string"
        },
        {
          "internalType": "string",
          "name": "VHM",
          "type": "string"
        },
        {
          "internalType": "string",
          "name": "ISOM",
          "type": "string"
        },
        {
          "internalType": "string",
          "name": "FSSAIM",
          "type": "string"
        }
      ],
      "stateMutability": "view",
      "type": "function",
      "constant": true
    },
    {
      "inputs": [
        {
          "internalType": "uint256",
          "name": "",
          "type": "uint256"
        }
      ],
      "name": "descS",
      "outputs": [
        {
          "internalType": "uint256",
          "name": "pid",
          "type": "uint256"
        },
        {
          "internalType": "string",
          "name": "DTRMS",
          "type": "string"
        },
        {
          "internalType": "string",
          "name": "TMTRS",
          "type": "string"
        },
        {
          "internalType": "string",
          "name": "TMTSS",
          "type": "string"
        }
      ],
      "stateMutability": "view",
      "type": "function",
      "constant": true
    },
    {
      "inputs": [],
      "name": "distributor",
      "outputs": [
        {
          "internalType": "address",
          "name": "",
          "type": "address"
        }
      ],
      "stateMutability": "view",
      "type": "function",
      "constant": true
    },
    {
      "inputs": [],
      "name": "manufacturer",
      "outputs": [
        {
          "internalType": "address",
          "name": "",
          "type": "address"
        }
      ],
      "stateMutability": "view",
      "type": "function",
      "constant": true
    },
    {
      "inputs": [
        {
          "internalType": "uint256",
          "name": "",
          "type": "uint256"
        }
      ],
      "name": "products",
      "outputs": [
        {
          "internalType": "uint256",
          "name": "productId",
          "type": "uint256"
        },
        {
          "internalType": "string",
          "name": "Location",
          "type": "string"
        },
        {
          "internalType": "address",
          "name": "owner",
          "type": "address"
        }
      ],
      "stateMutability": "view",
      "type": "function",
      "constant": true
    },
    {
      "inputs": [],
      "name": "retailer",
      "outputs": [
        {
          "internalType": "address",
          "name": "",
          "type": "address"
        }
      ],
      "stateMutability": "view",
      "type": "function",
      "constant": true
    },
    {
      "inputs": [
        {
          "internalType": "address",
          "name": "_distributor",
          "type": "address"
        }
      ],
      "name": "setDistributor",
      "outputs": [],
      "stateMutability": "nonpayable",
      "type": "function"
    },
    {
      "inputs": [
        {
          "internalType": "address",
          "name": "_retailer",
          "type": "address"
        }
      ],
      "name": "setRetailer",
      "outputs": [],
      "stateMutability": "nonpayable",
      "type": "function"
    },
    {
      "inputs": [
        {
          "internalType": "string",
          "name": "_CATRM",
          "type": "string"
        },
        {
          "internalType": "string",
          "name": "_DPMM",
          "type": "string"
        },
        {
          "internalType": "string",
          "name": "_DTQTMM",
          "type": "string"
        },
        {
          "internalType": "string",
          "name": "_DTPM",
          "type": "string"
        },
        {
          "internalType": "string",
          "name": "_DEM",
          "type": "string"
        },
        {
          "internalType": "string",
          "name": "_DTPMM",
          "type": "string"
        },
        {
          "internalType": "string",
          "name": "_TMTMM",
          "type": "string"
        },
        {
          "internalType": "string",
          "name": "_VHM",
          "type": "string"
        },
        {
          "internalType": "string",
          "name": "_ISOM",
          "type": "string"
        },
        {
          "internalType": "string",
          "name": "_FSSAIM",
          "type": "string"
        },
        {
          "internalType": "uint256",
          "name": "_productId",
          "type": "uint256"
        }
      ],
      "name": "updateManufacturerVariables",
      "outputs": [],
      "stateMutability": "nonpayable",
      "type": "function"
    },
    {
      "inputs": [
        {
          "internalType": "uint256",
          "name": "_pid",
          "type": "uint256"
        },
        {
          "internalType": "string",
          "name": "_DTMD",
          "type": "string"
        },
        {
          "internalType": "string",
          "name": "_QMRD",
          "type": "string"
        },
        {
          "internalType": "string",
          "name": "_DTPMD",
          "type": "string"
        },
        {
          "internalType": "string",
          "name": "_TMDD",
          "type": "string"
        },
        {
          "internalType": "string",
          "name": "_VHD",
          "type": "string"
        }
      ],
      "name": "updateDistributorVariables",
      "outputs": [
        {
          "internalType": "string",
          "name": "",
          "type": "string"
        }
      ],
      "stateMutability": "nonpayable",
      "type": "function"
    },
    {
      "inputs": [
        {
          "internalType": "uint256",
          "name": "_pid",
          "type": "uint256"
        },
        {
          "internalType": "string",
          "name": "_DTRMS",
          "type": "string"
        },
        {
          "internalType": "string",
          "name": "_TMTRS",
          "type": "string"
        },
        {
          "internalType": "string",
          "name": "_TMTSS",
          "type": "string"
        }
      ],
      "name": "updateRetailerVariables",
      "outputs": [
        {
          "internalType": "string",
          "name": "",
          "type": "string"
        }
      ],
      "stateMutability": "nonpayable",
      "type": "function"
    },
    {
      "inputs": [
        {
          "internalType": "uint256",
          "name": "_pid",
          "type": "uint256"
        }
      ],
      "name": "getprodmandet",
      "outputs": [
        {
          "components": [
            {
              "internalType": "uint256",
              "name": "pid",
              "type": "uint256"
            },
            {
              "internalType": "string",
              "name": "CATRM",
              "type": "string"
            },
            {
              "internalType": "string",
              "name": "DPMM",
              "type": "string"
            },
            {
              "internalType": "string",
              "name": "DTQTMM",
              "type": "string"
            },
            {
              "internalType": "string",
              "name": "DTPM",
              "type": "string"
            },
            {
              "internalType": "string",
              "name": "DEM",
              "type": "string"
            },
            {
              "internalType": "string",
              "name": "DTPMM",
              "type": "string"
            },
            {
              "internalType": "string",
              "name": "TMTMM",
              "type": "string"
            },
            {
              "internalType": "string",
              "name": "VHM",
              "type": "string"
            },
            {
              "internalType": "string",
              "name": "ISOM",
              "type": "string"
            },
            {
              "internalType": "string",
              "name": "FSSAIM",
              "type": "string"
            }
          ],
          "internalType": "struct finals.DescM",
          "name": "",
          "type": "tuple"
        }
      ],
      "stateMutability": "view",
      "type": "function",
      "constant": true
    },
    {
      "inputs": [
        {
          "internalType": "uint256",
          "name": "_pid",
          "type": "uint256"
        }
      ],
      "name": "getproddistdet",
      "outputs": [
        {
          "components": [
            {
              "internalType": "uint256",
              "name": "pid",
              "type": "uint256"
            },
            {
              "internalType": "string",
              "name": "DTMD",
              "type": "string"
            },
            {
              "internalType": "string",
              "name": "QMRD",
              "type": "string"
            },
            {
              "internalType": "string",
              "name": "DTPMD",
              "type": "string"
            },
            {
              "internalType": "string",
              "name": "TMDD",
              "type": "string"
            },
            {
              "internalType": "string",
              "name": "VHD",
              "type": "string"
            }
          ],
          "internalType": "struct finals.DescD",
          "name": "",
          "type": "tuple"
        }
      ],
      "stateMutability": "view",
      "type": "function",
      "constant": true
    },
    {
      "inputs": [
        {
          "internalType": "uint256",
          "name": "_pid",
          "type": "uint256"
        }
      ],
      "name": "getprodseldet",
      "outputs": [
        {
          "components": [
            {
              "internalType": "uint256",
              "name": "pid",
              "type": "uint256"
            },
            {
              "internalType": "string",
              "name": "DTRMS",
              "type": "string"
            },
            {
              "internalType": "string",
              "name": "TMTRS",
              "type": "string"
            },
            {
              "internalType": "string",
              "name": "TMTSS",
              "type": "string"
            }
          ],
          "internalType": "struct finals.DescS",
          "name": "",
          "type": "tuple"
        }
      ],
      "stateMutability": "view",
      "type": "function",
      "constant": true
    },
    {
      "inputs": [
        {
          "internalType": "uint256",
          "name": "_productId",
          "type": "uint256"
        }
      ],
      "name": "getProductHistory",
      "outputs": [
        {
          "internalType": "string[]",
          "name": "",
          "type": "string[]"
        }
      ],
      "stateMutability": "view",
      "type": "function",
      "constant": true
    },
    {
      "inputs": [
        {
          "internalType": "uint256",
          "name": "_productId",
          "type": "uint256"
        }
      ],
      "name": "isProductPresent",
      "outputs": [
        {
          "internalType": "bool",
          "name": "",
          "type": "bool"
        }
      ],
      "stateMutability": "view",
      "type": "function",
      "constant": true
    }
  ],
  "bytecode": "0x608060405234801561001057600080fd5b50336000806101000a81548173ffffffffffffffffffffffffffffffffffffffff021916908373ffffffffffffffffffffffffffffffffffffffff1602179055506138c3806100606000396000f3fe608060405234801561001057600080fd5b506004361061010b5760003560e01c8063650758a3116100a2578063a591e6f711610071578063a591e6f714610318578063aef753ae14610348578063bfe1092814610364578063e321deef14610382578063f4527e71146103b25761010b565b8063650758a31461027c57806374754282146102ac57806375619ab5146102ca5780637acc0b20146102e65761010b565b80634c1249fc116100de5780634c1249fc146101c457806357a096a1146101e257806358c5694414610212578063611f7fcc146102425761010b565b80631803b6ea1461011057806318969569146101435780633c36d656146101735780634a1f6125146101a8575b600080fd5b61012a60048036038101906101259190612c3e565b6103e2565b60405161013a949392919061349e565b60405180910390f35b61015d60048036038101906101589190612d12565b6105aa565b60405161016a9190613358565b60405180910390f35b61018d60048036038101906101889190612c3e565b610886565b60405161019f969594939291906134f8565b60405180910390f35b6101c260048036038101906101bd9190612a35565b610b6a565b005b6101cc610c3e565b6040516101d99190613300565b60405180910390f35b6101fc60048036038101906101f79190612c3e565b610c64565b604051610209919061331b565b60405180910390f35b61022c60048036038101906102279190612c3e565b610d59565b60405161023991906133fa565b60405180910390f35b61025c60048036038101906102579190612c3e565b611158565b6040516102739b9a9998979695949392919061357c565b60405180910390f35b61029660048036038101906102919190612c3e565b611702565b6040516102a3919061343e565b60405180910390f35b6102b46119dd565b6040516102c19190613300565b60405180910390f35b6102e460048036038101906102df9190612a35565b611a01565b005b61030060048036038101906102fb9190612c3e565b611ad3565b60405161030f93929190613460565b60405180910390f35b610332600480360381019061032d9190612c3e565b611ba5565b60405161033f919061341c565b60405180910390f35b610362600480360381019061035d9190612a5e565b61227f565b005b61036c612557565b6040516103799190613300565b60405180910390f35b61039c60048036038101906103979190612c67565b61257d565b6040516103a99190613358565b60405180910390f35b6103cc60048036038101906103c79190612c3e565b612825565b6040516103d9919061333d565b60405180910390f35b600660205280600052604060002060009150905080600001549080600101805461040b906137be565b80601f0160208091040260200160405190810160405280929190818152602001828054610437906137be565b80156104845780601f1061045957610100808354040283529160200191610484565b820191906000526020600020905b81548152906001019060200180831161046757829003601f168201915b505050505090806002018054610499906137be565b80601f01602080910402602001604051908101604052809291908181526020018280546104c5906137be565b80156105125780601f106104e757610100808354040283529160200191610512565b820191906000526020600020905b8154815290600101906020018083116104f557829003601f168201915b505050505090806003018054610527906137be565b80601f0160208091040260200160405190810160405280929190818152602001828054610553906137be565b80156105a05780601f10610575576101008083540402835291602001916105a0565b820191906000526020600020905b81548152906001019060200180831161058357829003601f168201915b5050505050905084565b6060600160009054906101000a900473ffffffffffffffffffffffffffffffffffffffff1673ffffffffffffffffffffffffffffffffffffffff163373ffffffffffffffffffffffffffffffffffffffff161461063c576040517f08c379a00000000000000000000000000000000000000000000000000000000081526004016106339061339a565b60405180910390fd5b600061064788612825565b9050600115158115151415610842576000600360008a815260200190815260200160002090506000600560008b81526020019081526020016000209050338260020160006101000a81548173ffffffffffffffffffffffffffffffffffffffff021916908373ffffffffffffffffffffffffffffffffffffffff1602179055506040518060400160405280600e81526020017f4174204469737472696275746f72000000000000000000000000000000000000815250826001019080519060200190610714929190612848565b508160030180600181540180825580915050600190039060005260206000200160006040518060400160405280600b81526020017f4469737472696275746f7200000000000000000000000000000000000000000081525090919091509080519060200190610784929190612848565b508881600101908051906020019061079d929190612848565b50878160020190805190602001906107b6929190612848565b50868160030190805190602001906107cf929190612848565b50858160040190805190602001906107e8929190612848565b5084816005019080519060200190610801929190612848565b506040518060400160405280601081526020017f5570646174652053756363657366756c00000000000000000000000000000000815250935050505061087c565b6040518060400160405280601981526020017f5468652070726f6475637420494420697320696e76616c6964000000000000008152509150505b9695505050505050565b60056020528060005260406000206000915090508060000154908060010180546108af906137be565b80601f01602080910402602001604051908101604052809291908181526020018280546108db906137be565b80156109285780601f106108fd57610100808354040283529160200191610928565b820191906000526020600020905b81548152906001019060200180831161090b57829003601f168201915b50505050509080600201805461093d906137be565b80601f0160208091040260200160405190810160405280929190818152602001828054610969906137be565b80156109b65780601f1061098b576101008083540402835291602001916109b6565b820191906000526020600020905b81548152906001019060200180831161099957829003601f168201915b5050505050908060030180546109cb906137be565b80601f01602080910402602001604051908101604052809291908181526020018280546109f7906137be565b8015610a445780601f10610a1957610100808354040283529160200191610a44565b820191906000526020600020905b815481529060010190602001808311610a2757829003601f168201915b505050505090806004018054610a59906137be565b80601f0160208091040260200160405190810160405280929190818152602001828054610a85906137be565b8015610ad25780601f10610aa757610100808354040283529160200191610ad2565b820191906000526020600020905b815481529060010190602001808311610ab557829003601f168201915b505050505090806005018054610ae7906137be565b80601f0160208091040260200160405190810160405280929190818152602001828054610b13906137be565b8015610b605780601f10610b3557610100808354040283529160200191610b60565b820191906000526020600020905b815481529060010190602001808311610b4357829003601f168201915b5050505050905086565b600160009054906101000a900473ffffffffffffffffffffffffffffffffffffffff1673ffffffffffffffffffffffffffffffffffffffff163373ffffffffffffffffffffffffffffffffffffffff1614610bfa576040517f08c379a0000000000000000000000000000000000000000000000000000000008152600401610bf19061339a565b60405180910390fd5b80600260006101000a81548173ffffffffffffffffffffffffffffffffffffffff021916908373ffffffffffffffffffffffffffffffffffffffff16021790555050565b600260009054906101000a900473ffffffffffffffffffffffffffffffffffffffff1681565b6060600060036000848152602001908152602001600020905080600301805480602002602001604051908101604052809291908181526020016000905b82821015610d4d578382906000526020600020018054610cc0906137be565b80601f0160208091040260200160405190810160405280929190818152602001828054610cec906137be565b8015610d395780601f10610d0e57610100808354040283529160200191610d39565b820191906000526020600020905b815481529060010190602001808311610d1c57829003601f168201915b505050505081526020019060010190610ca1565b50505050915050919050565b610d616128ce565b60008054906101000a900473ffffffffffffffffffffffffffffffffffffffff1673ffffffffffffffffffffffffffffffffffffffff163373ffffffffffffffffffffffffffffffffffffffff1614610def576040517f08c379a0000000000000000000000000000000000000000000000000000000008152600401610de69061337a565b60405180910390fd5b600060036000848152602001908152602001600020600001541415610e49576040517f08c379a0000000000000000000000000000000000000000000000000000000008152600401610e40906133ba565b60405180910390fd5b6000600560008481526020019081526020016000209050806040518060c001604052908160008201548152602001600182018054610e86906137be565b80601f0160208091040260200160405190810160405280929190818152602001828054610eb2906137be565b8015610eff5780601f10610ed457610100808354040283529160200191610eff565b820191906000526020600020905b815481529060010190602001808311610ee257829003601f168201915b50505050508152602001600282018054610f18906137be565b80601f0160208091040260200160405190810160405280929190818152602001828054610f44906137be565b8015610f915780601f10610f6657610100808354040283529160200191610f91565b820191906000526020600020905b815481529060010190602001808311610f7457829003601f168201915b50505050508152602001600382018054610faa906137be565b80601f0160208091040260200160405190810160405280929190818152602001828054610fd6906137be565b80156110235780601f10610ff857610100808354040283529160200191611023565b820191906000526020600020905b81548152906001019060200180831161100657829003601f168201915b5050505050815260200160048201805461103c906137be565b80601f0160208091040260200160405190810160405280929190818152602001828054611068906137be565b80156110b55780601f1061108a576101008083540402835291602001916110b5565b820191906000526020600020905b81548152906001019060200180831161109857829003601f168201915b505050505081526020016005820180546110ce906137be565b80601f01602080910402602001604051908101604052809291908181526020018280546110fa906137be565b80156111475780601f1061111c57610100808354040283529160200191611147565b820191906000526020600020905b81548152906001019060200180831161112a57829003601f168201915b505050505081525050915050919050565b6004602052806000526040600020600091509050806000015490806001018054611181906137be565b80601f01602080910402602001604051908101604052809291908181526020018280546111ad906137be565b80156111fa5780601f106111cf576101008083540402835291602001916111fa565b820191906000526020600020905b8154815290600101906020018083116111dd57829003601f168201915b50505050509080600201805461120f906137be565b80601f016020809104026020016040519081016040528092919081815260200182805461123b906137be565b80156112885780601f1061125d57610100808354040283529160200191611288565b820191906000526020600020905b81548152906001019060200180831161126b57829003601f168201915b50505050509080600301805461129d906137be565b80601f01602080910402602001604051908101604052809291908181526020018280546112c9906137be565b80156113165780601f106112eb57610100808354040283529160200191611316565b820191906000526020600020905b8154815290600101906020018083116112f957829003601f168201915b50505050509080600401805461132b906137be565b80601f0160208091040260200160405190810160405280929190818152602001828054611357906137be565b80156113a45780601f10611379576101008083540402835291602001916113a4565b820191906000526020600020905b81548152906001019060200180831161138757829003601f168201915b5050505050908060050180546113b9906137be565b80601f01602080910402602001604051908101604052809291908181526020018280546113e5906137be565b80156114325780601f1061140757610100808354040283529160200191611432565b820191906000526020600020905b81548152906001019060200180831161141557829003601f168201915b505050505090806006018054611447906137be565b80601f0160208091040260200160405190810160405280929190818152602001828054611473906137be565b80156114c05780601f10611495576101008083540402835291602001916114c0565b820191906000526020600020905b8154815290600101906020018083116114a357829003601f168201915b5050505050908060070180546114d5906137be565b80601f0160208091040260200160405190810160405280929190818152602001828054611501906137be565b801561154e5780601f106115235761010080835404028352916020019161154e565b820191906000526020600020905b81548152906001019060200180831161153157829003601f168201915b505050505090806008018054611563906137be565b80601f016020809104026020016040519081016040528092919081815260200182805461158f906137be565b80156115dc5780601f106115b1576101008083540402835291602001916115dc565b820191906000526020600020905b8154815290600101906020018083116115bf57829003601f168201915b5050505050908060090180546115f1906137be565b80601f016020809104026020016040519081016040528092919081815260200182805461161d906137be565b801561166a5780601f1061163f5761010080835404028352916020019161166a565b820191906000526020600020905b81548152906001019060200180831161164d57829003601f168201915b50505050509080600a01805461167f906137be565b80601f01602080910402602001604051908101604052809291908181526020018280546116ab906137be565b80156116f85780601f106116cd576101008083540402835291602001916116f8565b820191906000526020600020905b8154815290600101906020018083116116db57829003601f168201915b505050505090508b565b61170a612904565b60008054906101000a900473ffffffffffffffffffffffffffffffffffffffff1673ffffffffffffffffffffffffffffffffffffffff163373ffffffffffffffffffffffffffffffffffffffff1614611798576040517f08c379a000000000000000000000000000000000000000000000000000000000815260040161178f9061337a565b60405180910390fd5b6000600360008481526020019081526020016000206000015414156117f2576040517f08c379a00000000000000000000000000000000000000000000000000000000081526004016117e9906133ba565b60405180910390fd5b6000600660008481526020019081526020016000209050806040518060800160405290816000820154815260200160018201805461182f906137be565b80601f016020809104026020016040519081016040528092919081815260200182805461185b906137be565b80156118a85780601f1061187d576101008083540402835291602001916118a8565b820191906000526020600020905b81548152906001019060200180831161188b57829003601f168201915b505050505081526020016002820180546118c1906137be565b80601f01602080910402602001604051908101604052809291908181526020018280546118ed906137be565b801561193a5780601f1061190f5761010080835404028352916020019161193a565b820191906000526020600020905b81548152906001019060200180831161191d57829003601f168201915b50505050508152602001600382018054611953906137be565b80601f016020809104026020016040519081016040528092919081815260200182805461197f906137be565b80156119cc5780601f106119a1576101008083540402835291602001916119cc565b820191906000526020600020905b8154815290600101906020018083116119af57829003601f168201915b505050505081525050915050919050565b60008054906101000a900473ffffffffffffffffffffffffffffffffffffffff1681565b60008054906101000a900473ffffffffffffffffffffffffffffffffffffffff1673ffffffffffffffffffffffffffffffffffffffff163373ffffffffffffffffffffffffffffffffffffffff1614611a8f576040517f08c379a0000000000000000000000000000000000000000000000000000000008152600401611a869061337a565b60405180910390fd5b80600160006101000a81548173ffffffffffffffffffffffffffffffffffffffff021916908373ffffffffffffffffffffffffffffffffffffffff16021790555050565b6003602052806000526040600020600091509050806000015490806001018054611afc906137be565b80601f0160208091040260200160405190810160405280929190818152602001828054611b28906137be565b8015611b755780601f10611b4a57610100808354040283529160200191611b75565b820191906000526020600020905b815481529060010190602001808311611b5857829003601f168201915b5050505050908060020160009054906101000a900473ffffffffffffffffffffffffffffffffffffffff16905083565b611bad61292c565b60008054906101000a900473ffffffffffffffffffffffffffffffffffffffff1673ffffffffffffffffffffffffffffffffffffffff163373ffffffffffffffffffffffffffffffffffffffff1614611c3b576040517f08c379a0000000000000000000000000000000000000000000000000000000008152600401611c329061337a565b60405180910390fd5b600060036000848152602001908152602001600020600001541415611c95576040517f08c379a0000000000000000000000000000000000000000000000000000000008152600401611c8c906133ba565b60405180910390fd5b6000600460008481526020019081526020016000209050806040518061016001604052908160008201548152602001600182018054611cd3906137be565b80601f0160208091040260200160405190810160405280929190818152602001828054611cff906137be565b8015611d4c5780601f10611d2157610100808354040283529160200191611d4c565b820191906000526020600020905b815481529060010190602001808311611d2f57829003601f168201915b50505050508152602001600282018054611d65906137be565b80601f0160208091040260200160405190810160405280929190818152602001828054611d91906137be565b8015611dde5780601f10611db357610100808354040283529160200191611dde565b820191906000526020600020905b815481529060010190602001808311611dc157829003601f168201915b50505050508152602001600382018054611df7906137be565b80601f0160208091040260200160405190810160405280929190818152602001828054611e23906137be565b8015611e705780601f10611e4557610100808354040283529160200191611e70565b820191906000526020600020905b815481529060010190602001808311611e5357829003601f168201915b50505050508152602001600482018054611e89906137be565b80601f0160208091040260200160405190810160405280929190818152602001828054611eb5906137be565b8015611f025780601f10611ed757610100808354040283529160200191611f02565b820191906000526020600020905b815481529060010190602001808311611ee557829003601f168201915b50505050508152602001600582018054611f1b906137be565b80601f0160208091040260200160405190810160405280929190818152602001828054611f47906137be565b8015611f945780601f10611f6957610100808354040283529160200191611f94565b820191906000526020600020905b815481529060010190602001808311611f7757829003601f168201915b50505050508152602001600682018054611fad906137be565b80601f0160208091040260200160405190810160405280929190818152602001828054611fd9906137be565b80156120265780601f10611ffb57610100808354040283529160200191612026565b820191906000526020600020905b81548152906001019060200180831161200957829003601f168201915b5050505050815260200160078201805461203f906137be565b80601f016020809104026020016040519081016040528092919081815260200182805461206b906137be565b80156120b85780601f1061208d576101008083540402835291602001916120b8565b820191906000526020600020905b81548152906001019060200180831161209b57829003601f168201915b505050505081526020016008820180546120d1906137be565b80601f01602080910402602001604051908101604052809291908181526020018280546120fd906137be565b801561214a5780601f1061211f5761010080835404028352916020019161214a565b820191906000526020600020905b81548152906001019060200180831161212d57829003601f168201915b50505050508152602001600982018054612163906137be565b80601f016020809104026020016040519081016040528092919081815260200182805461218f906137be565b80156121dc5780601f106121b1576101008083540402835291602001916121dc565b820191906000526020600020905b8154815290600101906020018083116121bf57829003601f168201915b50505050508152602001600a820180546121f5906137be565b80601f0160208091040260200160405190810160405280929190818152602001828054612221906137be565b801561226e5780601f106122435761010080835404028352916020019161226e565b820191906000526020600020905b81548152906001019060200180831161225157829003601f168201915b505050505081525050915050919050565b60008054906101000a900473ffffffffffffffffffffffffffffffffffffffff1673ffffffffffffffffffffffffffffffffffffffff163373ffffffffffffffffffffffffffffffffffffffff161461230d576040517f08c379a00000000000000000000000000000000000000000000000000000000081526004016123049061337a565b60405180910390fd5b60006003600083815260200190815260200160002090506000600460008481526020019081526020016000209050338260020160006101000a81548173ffffffffffffffffffffffffffffffffffffffff021916908373ffffffffffffffffffffffffffffffffffffffff1602179055506040518060400160405280600e81526020017f4174204d616e75666163747572650000000000000000000000000000000000008152508260010190805190602001906123cb929190612848565b508282600001819055508160030180600181540180825580915050600190039060005260206000200160006040518060400160405280600b81526020017f4d616e756661637475726500000000000000000000000000000000000000000081525090919091509080519060200190612444929190612848565b508281600001819055508c816001019080519060200190612466929190612848565b508b81600201908051906020019061247f929190612848565b508a816003019080519060200190612498929190612848565b50898160040190805190602001906124b1929190612848565b50888160050190805190602001906124ca929190612848565b50878160060190805190602001906124e3929190612848565b50868160070190805190602001906124fc929190612848565b5085816008019080519060200190612515929190612848565b508481600901908051906020019061252e929190612848565b508381600a019080519060200190612547929190612848565b5050505050505050505050505050565b600160009054906101000a900473ffffffffffffffffffffffffffffffffffffffff1681565b6060600260009054906101000a900473ffffffffffffffffffffffffffffffffffffffff1673ffffffffffffffffffffffffffffffffffffffff163373ffffffffffffffffffffffffffffffffffffffff161461260f576040517f08c379a0000000000000000000000000000000000000000000000000000000008152600401612606906133da565b60405180910390fd5b600061261a86612825565b90506001151581151514156127e35760006003600088815260200190815260200160002090506000600660008981526020019081526020016000209050338260020160006101000a81548173ffffffffffffffffffffffffffffffffffffffff021916908373ffffffffffffffffffffffffffffffffffffffff1602179055506040518060400160405280600981526020017f41742053656c6c657200000000000000000000000000000000000000000000008152508260010190805190602001906126e7929190612848565b508160030180600181540180825580915050600190039060005260206000200160006040518060400160405280600681526020017f53656c6c6572000000000000000000000000000000000000000000000000000081525090919091509080519060200190612757929190612848565b5086816001019080519060200190612770929190612848565b5085816002019080519060200190612789929190612848565b50848160030190805190602001906127a2929190612848565b506040518060400160405280601081526020017f5570646174652053756363657366756c00000000000000000000000000000000815250935050505061281d565b6040518060400160405280601981526020017f5468652070726f6475637420494420697320496e76616c6964000000000000008152509150505b949350505050565b600080600360008481526020019081526020016000206000015414159050919050565b828054612854906137be565b90600052602060002090601f01602090048101928261287657600085556128bd565b82601f1061288f57805160ff19168380011785556128bd565b828001600101855582156128bd579182015b828111156128bc5782518255916020019190600101906128a1565b5b5090506128ca9190612986565b5090565b6040518060c001604052806000815260200160608152602001606081526020016060815260200160608152602001606081525090565b6040518060800160405280600081526020016060815260200160608152602001606081525090565b60405180610160016040528060008152602001606081526020016060815260200160608152602001606081526020016060815260200160608152602001606081526020016060815260200160608152602001606081525090565b5b8082111561299f576000816000905550600101612987565b5090565b60006129b66129b18461369e565b61366d565b9050828152602081018484840111156129ce57600080fd5b6129d984828561377c565b509392505050565b6000813590506129f08161385f565b92915050565b600082601f830112612a0757600080fd5b8135612a178482602086016129a3565b91505092915050565b600081359050612a2f81613876565b92915050565b600060208284031215612a4757600080fd5b6000612a55848285016129e1565b91505092915050565b60008060008060008060008060008060006101608c8e031215612a8057600080fd5b60008c013567ffffffffffffffff811115612a9a57600080fd5b612aa68e828f016129f6565b9b505060208c013567ffffffffffffffff811115612ac357600080fd5b612acf8e828f016129f6565b9a505060408c013567ffffffffffffffff811115612aec57600080fd5b612af88e828f016129f6565b99505060608c013567ffffffffffffffff811115612b1557600080fd5b612b218e828f016129f6565b98505060808c013567ffffffffffffffff811115612b3e57600080fd5b612b4a8e828f016129f6565b97505060a08c013567ffffffffffffffff811115612b6757600080fd5b612b738e828f016129f6565b96505060c08c013567ffffffffffffffff811115612b9057600080fd5b612b9c8e828f016129f6565b95505060e08c013567ffffffffffffffff811115612bb957600080fd5b612bc58e828f016129f6565b9450506101008c013567ffffffffffffffff811115612be357600080fd5b612bef8e828f016129f6565b9350506101208c013567ffffffffffffffff811115612c0d57600080fd5b612c198e828f016129f6565b925050610140612c2b8e828f01612a20565b9150509295989b509295989b9093969950565b600060208284031215612c5057600080fd5b6000612c5e84828501612a20565b91505092915050565b60008060008060808587031215612c7d57600080fd5b6000612c8b87828801612a20565b945050602085013567ffffffffffffffff811115612ca857600080fd5b612cb4878288016129f6565b935050604085013567ffffffffffffffff811115612cd157600080fd5b612cdd878288016129f6565b925050606085013567ffffffffffffffff811115612cfa57600080fd5b612d06878288016129f6565b91505092959194509250565b60008060008060008060c08789031215612d2b57600080fd5b6000612d3989828a01612a20565b965050602087013567ffffffffffffffff811115612d5657600080fd5b612d6289828a016129f6565b955050604087013567ffffffffffffffff811115612d7f57600080fd5b612d8b89828a016129f6565b945050606087013567ffffffffffffffff811115612da857600080fd5b612db489828a016129f6565b935050608087013567ffffffffffffffff811115612dd157600080fd5b612ddd89828a016129f6565b92505060a087013567ffffffffffffffff811115612dfa57600080fd5b612e0689828a016129f6565b9150509295509295509295565b6000612e1f8383612eba565b905092915050565b612e3081613734565b82525050565b6000612e41826136de565b612e4b8185613701565b935083602082028501612e5d856136ce565b8060005b85811015612e995784840389528151612e7a8582612e13565b9450612e85836136f4565b925060208a01995050600181019050612e61565b50829750879550505050505092915050565b612eb481613746565b82525050565b6000612ec5826136e9565b612ecf8185613712565b9350612edf81856020860161378b565b612ee88161384e565b840191505092915050565b6000612efe826136e9565b612f088185613723565b9350612f1881856020860161378b565b612f218161384e565b840191505092915050565b6000612f39602d83613723565b91507f4f6e6c7920746865206d616e7566616374757265722063616e2063616c6c207460008301527f6869732066756e6374696f6e2e000000000000000000000000000000000000006020830152604082019050919050565b6000612f9f602c83613723565b91507f4f6e6c7920746865206469737472696275746f722063616e2063616c6c20746860008301527f69732066756e6374696f6e2e00000000000000000000000000000000000000006020830152604082019050919050565b6000613005601183613723565b91507f50726f64756374206e6f7420666f756e640000000000000000000000000000006000830152602082019050919050565b6000613045602983613723565b91507f4f6e6c79207468652072657461696c65722063616e2063616c6c20746869732060008301527f66756e6374696f6e2e00000000000000000000000000000000000000000000006020830152604082019050919050565b600060c0830160008301516130b660008601826132e2565b50602083015184820360208601526130ce8282612eba565b915050604083015184820360408601526130e88282612eba565b915050606083015184820360608601526131028282612eba565b9150506080830151848203608086015261311c8282612eba565b91505060a083015184820360a08601526131368282612eba565b9150508091505092915050565b60006101608301600083015161315c60008601826132e2565b50602083015184820360208601526131748282612eba565b9150506040830151848203604086015261318e8282612eba565b915050606083015184820360608601526131a88282612eba565b915050608083015184820360808601526131c28282612eba565b91505060a083015184820360a08601526131dc8282612eba565b91505060c083015184820360c08601526131f68282612eba565b91505060e083015184820360e08601526132108282612eba565b91505061010083015184820361010086015261322c8282612eba565b9150506101208301518482036101208601526132488282612eba565b9150506101408301518482036101408601526132648282612eba565b9150508091505092915050565b600060808301600083015161328960008601826132e2565b50602083015184820360208601526132a18282612eba565b915050604083015184820360408601526132bb8282612eba565b915050606083015184820360608601526132d58282612eba565b9150508091505092915050565b6132eb81613772565b82525050565b6132fa81613772565b82525050565b60006020820190506133156000830184612e27565b92915050565b600060208201905081810360008301526133358184612e36565b905092915050565b60006020820190506133526000830184612eab565b92915050565b600060208201905081810360008301526133728184612ef3565b905092915050565b6000602082019050818103600083015261339381612f2c565b9050919050565b600060208201905081810360008301526133b381612f92565b9050919050565b600060208201905081810360008301526133d381612ff8565b9050919050565b600060208201905081810360008301526133f381613038565b9050919050565b60006020820190508181036000830152613414818461309e565b905092915050565b600060208201905081810360008301526134368184613143565b905092915050565b600060208201905081810360008301526134588184613271565b905092915050565b600060608201905061347560008301866132f1565b81810360208301526134878185612ef3565b90506134966040830184612e27565b949350505050565b60006080820190506134b360008301876132f1565b81810360208301526134c58186612ef3565b905081810360408301526134d98185612ef3565b905081810360608301526134ed8184612ef3565b905095945050505050565b600060c08201905061350d60008301896132f1565b818103602083015261351f8188612ef3565b905081810360408301526135338187612ef3565b905081810360608301526135478186612ef3565b9050818103608083015261355b8185612ef3565b905081810360a083015261356f8184612ef3565b9050979650505050505050565b600061016082019050613592600083018e6132f1565b81810360208301526135a4818d612ef3565b905081810360408301526135b8818c612ef3565b905081810360608301526135cc818b612ef3565b905081810360808301526135e0818a612ef3565b905081810360a08301526135f48189612ef3565b905081810360c08301526136088188612ef3565b905081810360e083015261361c8187612ef3565b90508181036101008301526136318186612ef3565b90508181036101208301526136468185612ef3565b905081810361014083015261365b8184612ef3565b90509c9b505050505050505050505050565b6000604051905081810181811067ffffffffffffffff821117156136945761369361381f565b5b8060405250919050565b600067ffffffffffffffff8211156136b9576136b861381f565b5b601f19601f8301169050602081019050919050565b6000819050602082019050919050565b600081519050919050565b600081519050919050565b6000602082019050919050565b600082825260208201905092915050565b600082825260208201905092915050565b600082825260208201905092915050565b600061373f82613752565b9050919050565b60008115159050919050565b600073ffffffffffffffffffffffffffffffffffffffff82169050919050565b6000819050919050565b82818337600083830152505050565b60005b838110156137a957808201518184015260208101905061378e565b838111156137b8576000848401525b50505050565b600060028204905060018216806137d657607f821691505b602082108114156137ea576137e96137f0565b5b50919050565b7f4e487b7100000000000000000000000000000000000000000000000000000000600052602260045260246000fd5b7f4e487b7100000000000000000000000000000000000000000000000000000000600052604160045260246000fd5b6000601f19601f8301169050919050565b61386881613734565b811461387357600080fd5b50565b61387f81613772565b811461388a57600080fd5b5056fea264697066735822122004bd7e98ba1cf28004d64b72df9454438aa5d646e83311c427d370b9a77083f664736f6c63430008000033",
  "immutableReferences": {},
  "source": "// SPDX-License-Identifier: GPL-3.0\r\npragma solidity >=0.4.16 <0.9.0;\r\n\r\ncontract finals {\r\n    address public manufacturer;\r\n    address public distributor;\r\n    address public retailer;\r\n    struct Product {\r\n        uint productId;\r\n        string Location;\r\n        address owner;\r\n        string[] ownerHist;\r\n    }\r\n    struct DescM{\r\n        uint pid;\r\n        string CATRM;\r\n        string DPMM;\r\n        string DTQTMM;\r\n        string DTPM;\r\n        string DEM;\r\n        string DTPMM;\r\n        string TMTMM;\r\n        string VHM;\r\n        string ISOM;\r\n        string FSSAIM;\r\n    }\r\n    struct DescD{\r\n        uint pid;\r\n        string DTMD;\r\n        string QMRD;\r\n        string DTPMD;\r\n        string TMDD;\r\n        string VHD;\r\n    }\r\n    struct DescS{\r\n        uint pid;\r\n        string DTRMS;\r\n        string TMTRS;\r\n        string TMTSS;\r\n    }\r\n    \r\n    mapping(uint256 => Product) public products;\r\n    mapping(uint256 => DescM) public descM;\r\n    mapping(uint256 => DescD) public descD;\r\n    mapping(uint256 => DescS) public descS;\r\n    \r\n    event ProductCreated(string description, uint256 productId, address manufacturer);\r\n    \r\n    constructor() {\r\n        manufacturer = msg.sender;\r\n    }\r\n    \r\n    modifier onlyManufacturer() {\r\n        require(msg.sender == manufacturer, \"Only the manufacturer can call this function.\");\r\n        _;\r\n    }\r\n    \r\n    modifier onlyDistributor() {\r\n        require(msg.sender == distributor, \"Only the distributor can call this function.\");\r\n        _;\r\n    }\r\n    \r\n    modifier onlyRetailer() {\r\n        require(msg.sender == retailer, \"Only the retailer can call this function.\");\r\n        _;\r\n    }\r\n    \r\n    function setDistributor(address _distributor) external onlyManufacturer {\r\n        distributor = _distributor;\r\n    }\r\n    \r\n    function setRetailer(address _retailer) external onlyDistributor {\r\n        retailer = _retailer;\r\n    }\r\n    \r\n    function updateManufacturerVariables(string memory _CATRM,string memory _DPMM,string memory _DTQTMM,string memory _DTPM,string memory _DEM,string memory _DTPMM,string memory _TMTMM, \r\n     string memory _VHM,string memory _ISOM,string memory _FSSAIM, uint256 _productId) external onlyManufacturer {\r\n        Product storage product = products[_productId];\r\n        DescM storage description =descM[_productId];\r\n        product.owner=msg.sender;\r\n        product.Location=\"At Manufacture\";\r\n        product.productId=_productId;\r\n        product.ownerHist.push(\"Manufacture\");\r\n        description.pid=_productId;\r\n        description.CATRM=_CATRM;\r\n        description.DPMM=_DPMM;\r\n        description.DTQTMM=_DTQTMM;\r\n        description.DTPM=_DTPM;\r\n        description.DEM=_DEM;\r\n        description.DTPMM=_DTPMM;\r\n        description.TMTMM=_TMTMM;\r\n        description.VHM=_VHM;\r\n        description.ISOM=_ISOM;\r\n        description.FSSAIM=_FSSAIM;\r\n\r\n}\r\n    \r\n    function updateDistributorVariables(uint256 _pid,string memory _DTMD,string memory _QMRD,string memory _DTPMD,string memory _TMDD,string memory _VHD) external onlyDistributor returns(string memory) {\r\n        bool check=isProductPresent(_pid);\r\n        if (check==true){\r\n            Product storage product = products[_pid];\r\n            DescD storage description=descD[_pid];\r\n            product.owner=msg.sender;\r\n            product.Location=\"At Distributor\";\r\n            product.ownerHist.push(\"Distributor\");\r\n            description.DTMD=_DTMD;\r\n            description.QMRD=_QMRD;\r\n            description.DTPMD=_DTPMD;\r\n            description.TMDD=_TMDD;\r\n            description.VHD=_VHD;\r\n            return \"Update Succesful\";\r\n        }\r\n        else{\r\n            return \"The product ID is invalid\";\r\n        }\r\n    }\r\n    \r\n    function updateRetailerVariables(uint256 _pid,string memory _DTRMS,string memory _TMTRS,string memory _TMTSS) external onlyRetailer returns (string memory) {\r\n         bool check=isProductPresent(_pid);\r\n        if (check==true){\r\n            Product storage product = products[_pid];\r\n            DescS storage description=descS[_pid];\r\n            product.owner=msg.sender;\r\n            product.Location=\"At Seller\";\r\n            product.ownerHist.push(\"Seller\");\r\n            description.DTRMS=_DTRMS;\r\n            description.TMTRS=_TMTRS;\r\n            description.TMTSS=_TMTSS;\r\n            return \"Update Succesful\";\r\n        }\r\n        else{\r\n            return \"The product ID is Invalid\";\r\n        }\r\n    }\r\n    \r\n    function getprodmandet(uint256 _pid)   external onlyManufacturer view returns (DescM memory){\r\n        require(products[_pid].productId != 0, \"Product not found\");\r\n            DescM storage description=descM[_pid];\r\n            return description;\r\n        \r\n    }\r\n        function getproddistdet(uint256 _pid)   external onlyManufacturer view returns (DescD memory){\r\n        require(products[_pid].productId != 0, \"Product not found\");\r\n            DescD storage description=descD[_pid];\r\n            return description;\r\n        \r\n    }\r\n        function getprodseldet(uint256 _pid)   external onlyManufacturer view returns (DescS memory){\r\n        require(products[_pid].productId != 0, \"Product not found\");\r\n            DescS storage description=descS[_pid];\r\n            return description;\r\n        \r\n    }\r\n    \r\n    function getProductHistory(uint256 _productId) public view returns (string[] memory) {\r\n        Product storage product = products[_productId];\r\n        return product.ownerHist;\r\n    }\r\n    \r\n\r\n     function getRole(address _address) private view returns (string memory) {\r\n        if (_address == manufacturer) {\r\n            return \"manufacturer\";\r\n        } else if (_address == distributor) {\r\n            return \"distributor\";\r\n        } else if (_address == retailer) {\r\n            return \"retailer\";\r\n        } else {\r\n            return \"unknown\";\r\n        }\r\n    }\r\n    function isProductPresent(uint256 _productId) public view returns (bool) {\r\n        return products[_productId].productId != 0;\r\n    }\r\n}\r\n",
  "sourcePath": "C:\\Users\\sangh\\OneDrive\\Desktop\\final\\bc\\contracts\\finals.sol",
  "compiler": {
    "name": "solc",
    "version": "0.8.0+commit.c7dfd78e.Emscripten.clang"
  },
  "schemaVersion": "3.4.14",
  "updatedAt": "2023-06-07T11:26:07.080Z",
  "networkType": "ethereum",
  "devdoc": {
    "kind": "dev",
    "methods": {},
    "version": 1
  },
  "userdoc": {
    "kind": "user",
    "methods": {},
    "version": 1
  }
}